:020000040800F2
:10000000A00700209D0100089B1F0008311D00086B
:10001000991F00086F0700088523000800000000F2
:100020000000000000000000000000005F20000849
:10003000D1070008000000005D20000861200008D2
:10004000B7010008B7010008B7010008B7010008B0
:10005000B7010008B7010008B7010008B7010008A0
:10006000B7010008B7010008B7010008B701000890
:10007000B7010008B7010008B7010008B701000880
:10008000B7010008B7010008B7010008950700088C
:10009000710700087D07000889070008B7010008FC
:1000A000B7010008B7010008B7010008B701000850
:1000B000B7010008B7010008B7010008B701000840
:1000C000B7010008B7010008B7010008B701000830
:1000D000B7010008B7010008B7010008B701000820
:1000E000B7010008B7010008B7010008B701000810
:1000F000B7010008B7010008B7010008B701000800
:10010000B7010008B7010008B7010008B7010008EF
:10011000B7010008B7010008B7010008B7010008DF
:10012000B7010008B7010008B7010008B7010008CF
:10013000B7010008B7010008B7010008C5070008AB
:10014000A1070008AD070008B9070008B7010008BB
:10015000B7010008B7010008B7010008B70100089F
:10016000B7010008B7010008B7010008B70100088F
:10017000B7010008B7010008B7010008000000003F
:10018000B7010008B7010008DFF80CD000F06EFAE4
:1001900000480047D52D0008A007002006488047EA
:1001A00006480047FEE7FEE7FEE7FEE7FEE7FEE75C
:1001B000FEE7FEE7FEE7FEE7E92000088901000808
:1001C0002DE9F05F0546002092469B46884606468C
:1001D000814640241BE0284641464746224600F01F
:1001E0007DF853465A46C01A914110D3114618461D
:1001F000224600F064F82D1A67EB01084F462246AC
:100200000120002100F05BF817EB00094E41201E91
:10021000A4F10104DFDC484631462A464346BDE8E6
:10022000F09F00000649074A0868504343F239022C
:10023000104408604008704701490860704700009A
:10024000400000206D4EC641D2B201E000F8012B03
:10025000491EFBD270470022F6E710B513460A4646
:1002600004461946FFF7F0FF204610BD00F000429B
:1002700030F000400AD0C10D01F56071C0F31600E6
:1002800042EA0151C208400711437047002001466D
:10029000704730B50B46014600202022012409E0BA
:1002A00021FA02F59D4205D303FA02F5491B04FA2F
:1002B00002F52844151EA2F10102F1DC30BD202A0E
:1002C00004DB203A00FA02F1002070479140C2F1AD
:1002D000200320FA03F3194390407047202A04DBDF
:1002E000203A21FA02F00021704721FA02F3D040AF
:1002F000C2F1200291400843194670472DE9FE4F94
:10030000804681EA0300C00F0C46009021F00041B6
:1003100023F00045B8EB0200A94105D24046214632
:1003200090461C460B46024623F00040104347D03F
:10033000270DC7F30A00C3F30A510290401A019037
:1003400040286BDAC3F3130040F4801B00989246F8
:1003500020B10023D2EB030A63EB0B0B0198594643
:10036000C0F140025046FFF7AAFF06460D46504630
:100370005946019A00F08CF910EB08006141002405
:1003800087EA115284EAE7731A4340D0009A62B3B5
:10039000019A012A4FEA075215DC001B61EB0201AA
:1003A0004FF0004202EA0752CDE90042001C41F53D
:1003B000801132462B4600F08CF903B0BDE8F08F77
:1003C00040462146F9E7001B61EB0201001C41F5A4
:1003D000801300185B412018A2F5001747EB0301BA
:1003E00040EAD570B6196D4111E06D084FEA360646
:1003F00045EAC0754FEA0752001B61EB0201001C81
:1004000041F5801149084FEA300000195141324648
:100410002B4603B0BDE8F04F00F04CB90098012224
:1004200040000023D0EB020263EBE073009821460A
:100430004FEAE074B8EB000061EB0401E9E783F0F8
:1004400000435BE781F0004158E72DE9FE4F81EA68
:10045000030404F0004421F0004100944FF0000B2D
:1004600023F0004350EA01045ED052EA03045BD05B
:10047000C3F30A54C1F30A552C44A4F2F334019493
:10048000A0FB0254C1F3130141F48011C3F3130321
:1004900043F4801301FB024400FB034E840A970AD5
:1004A00044EA815447EA8357A4FB076802958D0A02
:1004B00005FB07854FEA932C04FB0C542705029D8E
:1004C0004FEA065847EA1637B5EB08056EEB070CFE
:1004D000870E920E47EA811742EA8312A7FB0201B8
:1004E000B6EB0B0164EB00042B0D43EA0C335E18F2
:1004F00044EB1C50DA465146E7FB0201C5F31304F6
:100500004FEA0B3343EA14534FEA0432019C43EAA7
:100510000603A4F10C040294009CCDE900B400F0A1
:10052000D8F803B0BDE8F08F00200146F9E72DE9C7
:10053000F04D81EA030404F0004B21F0004514461D
:100540004FF0000A23F0004150EA050220D054EA9F
:1005500001021DD0C5F30A570246C5F31303C1F3C8
:100560001300C1F30A5640F4801543F48013A7EB3F
:100570000608101BD64608F2FD3873EB050002D3BF
:1005800008F1010801E092185B41B8F1000F03DAAD
:1005900000200146BDE8F08D00204FF48011064692
:1005A00084460EE0171B73EB050705D3121B63EBA4
:1005B000050306434CEA010C49084FEA3000921843
:1005C0005B4150EA0107EDD152EA030012D082EA02
:1005D000040083EA0501084305D0101BAB4106D295
:1005E0000122002306E000224FF0004302E06FF0FA
:1005F000010253101AEB06004CEB085110EB0A00F5
:1006000041EB0B01BDE8F04D00F054B8C1F30A52C4
:10061000C1F3130140F2FF3341F480119A4202DA30
:1006200000200146704740F233439A42A2F233421F
:1006300002DC5242FFF752BEFFF741BE30B5041E46
:1006400071F1000404DB4FF00044404264EB01010F
:10065000141E73F1000405DB1C464FF000435242A8
:1006600063EB0403994208BF904230BD064C074D2E
:1006700006E0E06840F0010394E807009847103472
:10068000AC42F6D3FFF784FDF82E0008182F0008BF
:10069000202A06DBCB17203A41FA02F043EAE07346
:1006A00006E041FA02F3D040C2F120029140084333
:1006B0001946704710B5141E73F1000408DA401C87
:1006C00041F1000192185B411A4301D120F0010071
:1006D00010BD2DE9F04D92469B4611B1B1FA81F261
:1006E00002E0B0FA80F220329046FFF7E8FD0446BF
:1006F0000F4640EA0A0041EA0B0153465A460843B6
:1007000013D0114653EA010019D0C8F140025046F7
:10071000FFF7E4FD05460E46504659464246FFF7B0
:10072000CEFD084305D0012004E020463946BDE84F
:10073000F08D0020054346EAE0762C4337430A98C3
:100740006305E40AA0EB08000022FD0A44EA4754CE
:100750000A3002D500200146E9E701051019694178
:10076000DDE9084500196941BDE8F04DA2E7FEE763
:10077000014800F0B6B9000048000020014800F030
:10078000B0B9000048000020014800F0AAB90000FC
:1007900048000020014800F0A4B9000048000020F3
:1007A000014800F09EB9000070000020014800F0F0
:1007B00098B9000070000020014800F092B90000D4
:1007C00070000020014800F08CB90000700000208B
:1007D0007047704790F82020012A07D0022A05D0E0
:1007E000416A41F4802141620120704700684269FA
:1007F0000A43426100207047F0B590F82050046829
:10080000A468012D05D0022D03D0416A41F4802156
:1008100053E014F0406F01D1E5004BD5C4F30164FF
:10082000022C03D9416A41F4000146E00125A540AC
:100830001D608D684FF4C0739DB1CE6835434E681E
:1008400045EAC605066803EB0417F5514FF4C27577
:10085000076805EB04150E697E51097D012905D055
:1008600009E00E88CD6845EA4655EBE701684E5928
:1008700046F480764E511179D2F805504FF4C67681
:1008800041EA0525016806EB04168D511178D2F86E
:1008900001204FF4C47541EA0221026805EB0415FA
:1008A0005151006803EB0411425842F001024250DA
:1008B0000020F0BD416A41F4001141620120F0BD09
:1008C00010B590F82020012A07D0022A05D0416AED
:1008D00041F480214162012010BD3B48D0F8002244
:1008E00042F00102C0F80022D0F8002222F47C522B
:1008F000C0F80022D0F800224B6A42EA0322C0F876
:1009000000220A7D02F01F0301229A40D0F81C3217
:100910009343C0F81C32CB69B3B9D0F80C3293437F
:10092000C0F80C328C894B6864F31F434C6900EBB0
:10093000C404C4F840320C890B6864F31F434C694B
:1009400000EBC404C4F84432CB69012B16D1D0F8B3
:100950000C321343C0F80C320C884B6864F31F430D
:100960004C6900EBC404C4F840320C89CB6864F3D2
:100970001F434C6900EBC404C4F844328B69002B5C
:10098000D0F804320ED01343C0F804320B69002BA8
:10099000D0F8143208D01343C0F81432096A012980
:1009A00004D008E09343EFE79343F5E7D0F81C1237
:1009B0001143C0F81C12D0F8001221F00101C0F858
:1009C0000012002010BD000000640040704730B5E8
:1009D00090F82040012C05D0022C03D0416A41F44C
:1009E00080215DE00468002955D02469A40754D013
:1009F0004FF4D874056804EB01142D5915F0040563
:100A0000956005682D594ED0ED08556005682C5944
:100A100004F00204D4604FF4DA74056804EB0114A6
:100A20002D5905F00F05156105682D59C5F30725EA
:100A3000956105682C59240C54614FF4DC720468EC
:100A400002EB0112A4581C700468A458240A5C70BC
:100A50000468A458240C9C700468A258120EDA7022
:100A60004FF4DE72046802EB0112A4581C71046892
:100A7000A458240A5C710468A458240C9C7104686E
:100A8000A258120EDA71006881B1016941F02001AB
:100A90000161002030BDE468A8E7416A41F400111B
:100AA0004162012030BD6D0D1560AFE7C16841F0B6
:100AB0002001C160EDE70246002092F820100129D4
:100AC00001D002290CD111688A68520100D5012099
:100AD0008A68120100D5401C8968C90000D5401CF5
:100AE00070472DE9F05F0546006800244669D0F89C
:100AF00004908768D0F80CB0D0F810A0D0F8188017
:100B0000F10748D0F90714D001218160B80703D557
:100B1000284600F000FB0CE0780702D54FF4006493
:100B200007E0380702D54FF4805402E0284600F071
:100B3000F1FAF80516D529684FF480708860B80579
:100B400003D5284600F0E9FA0CE0780502D544F414
:100B5000005407E0380502D544F4804402E02846FA
:100B600000F0DAFAF80316D529684FF4803088606F
:100B7000B80303D5284600F0D2FA0CE0780302D57A
:100B800044F4004407E0380302D544F4803402E022
:100B9000284600F0C3FA300707D55FEACB6004D5DA
:100BA0002968102044F40074C86070074FF00807EB
:100BB00007D55FEA0B7004D52868C760284600F0A7
:100BC000C9F9B00706D52868C068800702D0284652
:100BD00000F0C2F9700607D55FEACA6004D529683B
:100BE000102044F480640861B00607D55FEA0A70FB
:100BF00004D528680761284600F05CFAF00606D59F
:100C000028680069800702D0284600F054FAB00333
:100C100008D55FEAC96005D52968102048602846D4
:100C200000F04AFAF00307D55FEA097004D5286896
:100C30004760284600F074FA300446D55FEA4970F0
:100C400040D5F00504D55FEAC87001D044F0010436
:100C5000B00504D55FEA887001D544F00204700540
:100C600004D55FEA487001D544F00404300529D565
:100C700018F0700F26D008F07000402815D006DC60
:100C8000102809D020280AD0302816D10AE0502890
:100C90000ED0602811D10EE044F008040DE044F0BD
:100CA00010040AE044F0200407E044F0400404E0AB
:100CB00044F0800401E044F480742868816921F0E4
:100CC00070018161296804204860002C05D0686AA1
:100CD000204368622846FFF779FEBDE8F09F70B5B3
:100CE000040003D094F8200010B104E0012070BD8E
:100CF000204600F081F82068016821F002010160BF
:100D000000F004FB0546052604E000F0FFFA401B56
:100D10000A2811D8206840688007F6D42068016846
:100D200041F00101016000F0F1FA05460BE000F02E
:100D3000EDFA401B0A2806D9606A40F40030606270
:100D400084F82060D2E720684068C007EFD0207E9A
:100D50000128206801683DD021F080010160607E9B
:100D600001282068016838D021F040010160A07E90
:100D700001282068016833D021F020010160E07E65
:100D80000128206801682ED041F010010160207F09
:100D900001282068016829D021F008010160607FE6
:100DA00001282068016824D021F004010160D4E901
:100DB00002010843D4E90412114308436168491E43
:100DC00008432168C86100206062012084F8200087
:100DD000002070BD41F08001C0E741F04001C5E74F
:100DE00041F02001CAE721F01001CFE741F00801EE
:100DF000D4E741F00401D9E7F0B587B004461421E7
:100E00006846FFF728FA4E4B4E48DFF830E1196884
:100E1000D4F800C04B4A03250226092710300024CD
:100E2000491CF4453AD11960012907D1016841F004
:100E300000710160006800F000700590106840F0DB
:100E4000080010601068CDE9005600F00800CDE9F8
:100E5000047069463C48CDE9024500F075F900226E
:100E60001146132000F0C0FA132000F0AFFA002260
:100E70001146142000F0B8FA142000F0A7FA00225E
:100E80001146152000F0B0FA152000F09FFA00225C
:100E90001146162000F0A8FA16204BE0DFF8ACE06F
:100EA000F44549D1D0F800C04CF0806CC0F800C0C7
:100EB000D0F800C001290CF0806CCDF814C0196086
:100EC00007D1016841F000710160006800F0007016
:100ED0000590106840F002001060106802AB00F04E
:100EE000020005904FF44050CDE9000683E8B000C1
:100EF0006946174800F028F9002211463F2000F00B
:100F000073FA3F2000F062FA00221146402000F000
:100F10006BFA402000F05AFA00221146412000F0FE
:100F200063FA412000F052FA00221146422000F0FC
:100F30005BFA422000F04AFA07B0F0BD00640040BE
:100F40000400002030380240000C024000680040DD
:100F500000040240704700002DE9F041504E514C12
:100F6000DFF844810546B04241D1A31C08F59872D0
:100F70000021FFF72CFD08F5987040F2052200686B
:100F8000A0F20521904222D00ADCA0F500710139BF
:100F90000BD0012909D0022907D0032920D104E070
:100FA000012917D002291BD117E0401EC0B22070C2
:100FB00000EB800108EBC10081694A1C8261322983
:100FC00001D837493FE0374A3549921C59E0354A44
:100FD000921C5BE0334A921C5EE0324A921C3FE076
:100FE0003068416941F002014161BDE8F0812F4E56
:100FF000B542FAD12B4B2E4A12330021FFF7E7FC02
:101000002B4F3868B0F5017F10D01FDC40F2012271
:10101000A0F20121904209D004DC012824D002284A
:10102000DED125E0012901D00229D9D1401EC0B26C
:10103000607000EB800108EBC10081694A1C82618D
:1010400032291BD8194901F0BDFEC9E7A0F500708F
:10105000053819D001281DD00228C1D1114A1232F9
:101060001348294674380CE00E49123101F0E4F8B7
:101070000C493868123101F0DFF8B1E7094A0B4931
:10108000123201F071FEABE7064A123208482946D7
:101090009C38F6E7034A123203482946A030F0E7AD
:1010A000480000200C000020D80100207000002023
:1010B0003C030020704770477047000070B504463D
:1010C00090F82000012804D0606A40F4002060629B
:1010D00018E0022084F820002068016821F0010156
:1010E000016000F013F905460EE000BF00F00EF9B4
:1010F000401B0A2808D9606A40F40030606205206D
:1011000084F82000012070BD20684068C007EDD140
:10111000606270BD70477047704770477047704796
:101120007047000070B5044600F0F0F80546601CFA
:1011300002D004480078044400F0E8F8401BA042C4
:10114000FAD370BD340000202DE9F84F00224FF093
:10115000010803254FF00F0E0B6808FA02F4234034
:10116000A3426ED14E68012E05D0022E03D0112E5F
:1011700001D0122E12D186684FEA420C05FA0CF704
:10118000BE43CF6807FA0CF7374387604668A6432B
:101190000C79C4F30014944034434460C66857008B
:1011A00005FA07FC8C6826EA0C06BC403443C46090
:1011B0004C68022C01D0122C13D1D40800EB84040B
:1011C000A346D4F8209054074FEAD46A0EFA0AF6E0
:1011D00029EA06090E6906FA0AF646EA0906CBF874
:1011E000206006680C7926EA0C0604F00304BC4073
:1011F000344304604C68E40065D5364C266846F4F8
:1012000080462660246822F0030604F4804400949B
:10121000314C3444A446D4F808489607370F0EFAE8
:1012200007F6B4432D4EB04201D1002624E02C4EE7
:10123000B04201D101261FE02A4EB04202D102265F
:101240001AE040E0284EB04201D1032614E0274EB8
:10125000B04201D104260FE0254EB04201D105264F
:101260000AE0244EB04201D1062605E0224EB042EB
:1012700001D1072600E00826BE402643CCF80868C6
:101280001E4E34684F689C43FF0300D51C433460F6
:101290001A4C241D26684F689E43BF0300D51E4389
:1012A0002660164E083634684F689C43FF0200D50E
:1012B0001C433460114E0C3634684F689C43BF02A7
:1012C00000D51C433460521C102AFFF445AFBDE822
:1012D000F88F000044380240003001400000024016
:1012E0000004024000080240000C024000100240CE
:1012F0000014024000180240001C0240003C014063
:101300000AB1816170470904FBE700000148806869
:1013100070470000340000200248816802781144C0
:1013200081607047340000200B4810B5016841F41B
:1013300000710160016841F480610160016841F45D
:1013400080710160032000F06FF8002000F006F8C3
:1013500000F024F8002010BD003C024070B50D4D97
:1013600004464FF47A712878B1FBF0F00A49096815
:10137000B1FBF0F000F0F8FA48B9102C07D20022C7
:101380002146501E00F030F800206C6070BD012036
:1013900070BD000034000020080000200A4808B595
:1013A000016841F480410160006800F480400090D1
:1013B0000548001F016841F080510160006800F09D
:1013C0008050009008BD000044380240002809DB2E
:1013D00000F01F02012191404009800000F1E0204F
:1013E000C0F8001170470000F0B40E4B1B680C46AB
:1013F000C3F30223C3F10705042D00D90425191DE9
:10140000072901D2002300E0DB1E012606FA05F1C0
:10141000491E214099409E40761E16403143F0BC43
:1014200000F0C2BF0CED00E0064900F007020868BA
:101430004FF6FF03184040EA0220034A10430860B9
:10144000704700000CED00E00000FA052DE9F047C0
:101450000E46050065D0DFF81481D8F80000F7B219
:1014600000F00F00B04207D288F80070D8F80000F2
:1014700000F00F00B04254D128683D4C810712D5CE
:10148000400703D5206840F4E0502060287800072A
:1014900003D5206840F4604020602068A96820F0EF
:1014A000F000084320602878C0072DD030496868D4
:1014B0000839012812D0022813D0032811D0096856
:1014C000890700292DDA216821F0030101432160F9
:1014D000FFF71CFF814641F2883A0EE00968890354
:1014E000EFE709688901ECE7FFF710FFA0EB0901BE
:1014F000514502D90320BDE8F0872068696800F0F3
:101500000C00B0EB810FEFD1D8F80010404601F08D
:101510000F01B14207D90770006800F00F00B04218
:1015200001D00120E7E72878400705D52068E96861
:1015300020F4E050084320602878000706D5206892
:10154000296920F4604040EAC100206000F038F8CA
:101550002168084AC1F30311515CC840064908607C
:1015600006480068FFF7FAFE0020C4E7003C02408E
:1015700008380240E02E0008080000203800002053
:101580000448054900680968044AC1F38221515C96
:10159000C84070470800002008380240F02E0008BC
:1015A0000448054900680968044AC1F34231515CA6
:1015B000C84070470800002008380240F02E00089C
:1015C000104810B5006810F00C010F4818D004291D
:1015D00016D0082914D10B4C241F216801F03F02BA
:1015E000216821680023C1F38811A1FB0001FEF7E7
:1015F000E7FD2168C1F30141491C4900B0FBF1F04E
:1016000010BD0000083802400024F4002DE9F84F16
:1016100004006ED02078DFF83C93C007A9F10405E0
:101620004AD009F104000168C1F38101012908D001
:101630000068C0F3810002280AD1D9F800004002F6
:1016400006D52868800337D560680028E1D033E0EC
:101650006068B0F5803F10D0B0F5A02F286810D09A
:1016600020F480302860286820F48020286060689A
:10167000A8B1FFF74BFE06460DE0286840F4803025
:10168000F4E740F480202860F7E700BFFFF73EFE54
:10169000801B642873D828688003F7D50CE0FFF717
:1016A00035FE064605E000BFFFF730FE801B6428CC
:1016B000F0D828688003F7D42078DFF89C82800770
:1016C0004FF0000A3ED5A348001D016811F00C0F31
:1016D00008D00068C0F3810002280BD1D9F80000BF
:1016E000400207D42868800716D5E068012800D199
:1016F00012E02BE1E068B8B10120C8F80000FFF764
:1017000005FE064605E000BFFFF700FE801B02282D
:10171000C0D828688007F7D52868216920F0F8002C
:1017200040EAC10028600DE0C8F800A0FFF7EEFD18
:10173000064604E0FFF7EAFD801B02281FD8286850
:101740008007F7D42078000722D5824E834861694C
:10175000703671B101210160FFF7D8FD074604E042
:10176000FFF7D4FDC01B022809D830688007F7D5E1
:101770000EE0C0F800A0FFF7C9FD074605E082E0D3
:10178000FFF7C4FDC01B02287DD830688007F7D45E
:101790002078400768D5DFF8BCB100270BF13C0B7F
:1017A000DBF80000C0000BD4DBF8001041F08051E2
:1017B000CBF80010DBF80000012700F0805000900B
:1017C000674E3068C00510D4306840F480703060D7
:1017D000FFF79CFD009005E0FFF798FD0099401A87
:1017E000022850D83068C005F6D55A4EA0686C362D
:1017F00001280FD00528306810D020F0010030609B
:10180000306820F004003060A068B8B1FFF77EFDBA
:1018100000900FE0306840F00100F4E740F0040071
:101820003060F7E7FFF772FD0099411A41F2883006
:10183000814266D830688007F4D50EE0FFF766FD78
:10184000009007E0FFF762FD0099411A41F28830ED
:10185000814256D830688007F4D42FB1DBF80010ED
:1018600021F08051CBF80010A069C8B33949091D97
:101870000968C1F3810102294AD00228504607D0E5
:10188000C8F8600000E03CE0FFF740FD04463BE0A4
:101890004746C8F86000FFF739FD064605E000BF7F
:1018A000FFF734FD801B02282BD828688001F7D46D
:1018B000D4E907010843A16A2A4A490802EB014119
:1018C000626A41EA8211084394F82C1040EA0161EF
:1018D000C9F8001001203866FFF718FD044606E03D
:1018E00036E000BFFFF712FD001B022809D8286868
:1018F0008001F7D52CE000BFFFF708FD001B022890
:1019000002D90320BDE8F88F28688001F4D41FE0D5
:101910000128F7D0D9F80000E26900F48001914273
:1019200014D1226A00F03F0191420FD147F6C071F5
:10193000626A0140914209D1A26A00F440319142A9
:1019400004D1E16A00F07060884201D00120D9E73B
:101950000020D7E70438024000004742800E47428B
:10196000007000400000FFFF10B5401EB0F1807F06
:1019700001D3012010BD4FF0E02460610F216017FA
:1019800000F012FD0020A06107202061002010BDA2
:1019900070B590F83C20012A32D0012480F83C40F8
:1019A000022280F83D2003685A689D6822F0700684
:1019B0000A6832435A60134B02689A4214D0B2F15B
:1019C000804F11D0104B9A420ED0104B9A420BD040
:1019D0000F4B9A4208D00F4B9A4205D00E4B9A42B9
:1019E00002D00E4B9A4204D1496825F08003194376
:1019F000916080F83D40002180F83C10084670BDA1
:101A0000022070BD000001400004004000080040BA
:101A1000000C00400004014000400140001800405C
:101A200010B5040003D094F83D0010B107E0012088
:101A300010BD002084F83C00204600F00DF8022084
:101A400084F83D00211D206800F05CFB012084F833
:101A50003D00002010BD000008B50068064988421E
:101A600008D10648016841F001010160006800F0FA
:101A70000100009008BD0000000001404438024011
:101A8000022180F83D1001688A6802F00702062AE8
:101A900003D00A6842F001020A60012180F83D107B
:101AA0000020704770B5044690F83C00012817D01C
:101AB000012584F83C50022084F83D0020688268AB
:101AC00022F0770222F47F4282600868502830D0EA
:101AD0000DDC20284DD005DC98B310283BD148E020
:101AE000022070BD302844D0402834D139E060282D
:101AF00028D0702806D0B0F5805F2CD0B0F5005FFC
:101B000029D10AE0CB68D1E90121206800F05EFB11
:101B10002068816841F0770109E0CB68D1E90121B3
:101B2000206800F053FB2068816841F480418160A7
:101B300011E0CA684968206800F05AFB502120680B
:101B400007E016E0CA684968206800F062FB60217F
:101B5000206800F045FB84F83D50002084F83C00EC
:101B600070BDCA684968206800F042FB40212068C7
:101B7000EFE7226801461046EBE770B5040004D099
:101B800094F83900002510B106E0012070BD84F8FA
:101B90003850204600F022F8242084F839002068CC
:101BA000C16821F40051C160204600F057FB206855
:101BB000016921F4904101612068416921F02A0105
:101BC00041612068C16841F40051C160E563202093
:101BD00084F8390084F83A00002070BDF0B587B071
:101BE000044614216846FEF736FB4949DFF81CC15C
:101BF00027680023464A1039022403250826454851
:101C0000674528D1136843F480131360126802F407
:101C1000801205920A6842F004020A600A6802F023
:101C2000040205920A6842F008020A600968012766
:101C300001F00801059181148DE89200CDE9035669
:101C40006946FFF781FA04208DE89100CDE903563B
:101C5000694631481BE0DFF8C4E04FF0070C7745D8
:101C600019D1106840F400301060106800F40030A2
:101C70000590086840F0010008600868694600F0B7
:101C8000010005900C20CDE9000425481DE0FFF778
:101C90005BFA07B0F0BDDFF88CE0774519D110682A
:101CA00040F480201060106800F4802005900868DF
:101CB00040F0020008600868694600F002000590E4
:101CC0004FF44060CDE90004174802AE86E82810C2
:101CD000DDE7164A9742DCD10D4A121D176847F01E
:101CE00020071760126802F0200205920A6842F08D
:101CF00004020A60096802AA01F004010591C021EA
:101D0000CDE9001482E868006946C0E70050004051
:101D10004038024000080240000C024000440040ED
:101D2000000002400048004000040240001401404E
:101D3000FEE700000F4810B50D4901600621416023
:101D400000214FF400328160C0E9031212014261A8
:101D50000176012242768176C17601774177FEF7DE
:101D6000BEFF002803D0BDE81040FEF732BD10BD15
:101D700000640040480000200F4810B50D49016084
:101D80000621416000214FF400328160C0E9031256
:101D9000120142610176012242768176C176017795
:101DA0004177FEF79CFF002803D0BDE81040FEF706
:101DB00010BD10BD006800407000002070B586B0F6
:101DC00014216846FEF747FA1E480024016841F0D6
:101DD00080010160016801F080010591016841F016
:101DE00001010160016801F001010591016841F004
:101DF00002010160016801F002010591016841F0F2
:101E000008010160016801F008010591016841F0D5
:101E10000401016000680C4E00F004004FF470658E
:101E20000590002229463046FFF76AFA0120009506
:101E3000CDE90104694630460394FFF785F906B001
:101E400070BD000030380240000C024010B586B072
:101E500000241848009401940294039404941449B3
:101E6000059401600321C0E901144FF6FF71C0E938
:101E700003148021C0E90541FFF7D2FD08B1FEF748
:101E8000A8FC4FF48050009069460A48FFF70AFE0C
:101E900008B1FEF79EFC049404A906480594FFF7D8
:101EA00077FD002801D0FEF794FC06B010BD0000BD
:101EB00000000140980000200C4810B50A4901605C
:101EC0004FF4E1314160002181600C22C160C0E922
:101ED00004128161C161FFF750FE002803D0BDE804
:101EE0001040FEF776BC10BD00500040D800002026
:101EF0000C4810B50A4901604FF4E13141600021FE
:101F000081600C22C160C0E904128161C161FFF7E8
:101F100034FE002803D0BDE81040FEF75ABC10BDC7
:101F200000440040180100200C4810B50A49016027
:101F30004FF4E1314160002181600C22C160C0E9B1
:101F400004128161C161FFF718FE002803D0BDE8CB
:101F50001040FEF73EBC10BD004800405801002074
:101F60000C4810B50A4901604FF4E131416000218D
:101F700081600C22C160C0E904128161C161FFF778
:101F8000FCFD002803D0BDE81040FEF722BC10BDC8
:101F90000014014098010020FEE77047C0ED0A1AC6
:101FA00080ED0B2A00F1180181EC030A7047000054
:101FB0002949C0ED010A0978C90701D0B1EE400AEC
:101FC00080ED000A30EE601A80ED041A90ED030AED
:101FD00070EE010AC0ED030A90ED0B0AF1EE401A13
:101FE000F4EEE10AF1EE10FA02D8F0EE610A06E032
:101FF000F4EEC00AF1EE10FA01DBF0EE400AC0ED9B
:10200000030A90ED060AD0ED071A20EE010A01EE50
:10201000A00AD0ED050AD0ED081A71EE600A01EEB3
:10202000A00A80ED090A80ED051AD0ED0A0AB1EE8A
:10203000601AB4EEC10AF1EE10FA02D8B0EE410A0D
:1020400006E0B4EEE00AF1EE10FA01DBB0EE600A51
:1020500080ED090A7047000030000020704770478B
:10206000FFF75AB930B593B030216846FEF7F3F860
:1020700014210CA8FEF7EFF819480025016841F07B
:1020800080510160006800F080501190154801688F
:1020900041F4804101600068022400F48040119006
:1020A00001200090000401908001CDE90640082045
:1020B0000890A820CDE9090404200B906846FFF79A
:1020C000A5FA0CA90F2081E831004FF4A0500F9021
:1020D000E002109005210CA8FFF7B8F913B030BD4D
:1020E00040380240007000400548016841F470012A
:1020F000016003494FF000608039086070470000BC
:1021000088ED00E0F0B50268254C264D264E274F9D
:10211000274B4FF0804CA04209D0604507D0A84221
:1021200005D0B04203D0B84201D0984204D122F089
:10213000700E4A6842EA0E02A0421BD0604519D0D8
:10214000A84217D0B04215D0B84213D0984211D04F
:10215000184DA8420ED0184DA8420BD0174DA842DA
:1021600008D0174DA84205D0164DA84202D0164DF2
:10217000A84203D122F44075CA682A434D6922F06F
:1021800080022A4302608A68C2620A688262A042B0
:1021900001D0984201D10969016301214161F0BD7B
:1021A000000001400004004000080040000C004016
:1021B000000401400040014000440140004801404B
:1021C00000180040001C00400020004010B584684A
:1021D00042EA032224F47F440A432243826010BD72
:1021E000826822F070020A4342F007018160704762
:1021F00010B5036A046A24F001040462846924F0BF
:10220000F00444EA021423F00A020A4384610262E1
:1022100010BD10B5036A23F0100303628369046ADA
:1022200023F4704343EA023224F0A00343EA01118D
:102230008261016210BD0000074A012806D0022811
:1022400003D14B680868C2E9000370474B6808680F
:10225000C2E9020370470000580300202DE9F04155
:10226000044600680169E26821F4405111430161AC
:102270002169A068E2690843616911430843216844
:10228000CA6849F20C639A430243CA6020684169F4
:10229000A26921F4407111434161E0691927642565
:1022A0003226B0F5004F354A354920684FF0000816
:1022B00006D0884201D0904236D1FFF771F935E05F
:1022C000884201D0904202D1FFF76AF901E0FFF79E
:1022D00057F961684A18A0FB070148EB0803FDF7AE
:1022E0006FFF0146B0FBF5F00201B1FBF5F06FF0B6
:1022F0001803584301EB800006EBC000B0FBF5F07B
:1023000000F0F80002EB4002B1FBF5F0584301EB9E
:10231000800006EBC000B0FBF5F000F0070021687C
:1023200010448860BDE8F081FFF72AF961688B0FDF
:102330008A00A0FB0701FDF743FF0146B0FBF5F063
:102340006FF01802504301EB800006EB0010B0FB69
:10235000F5F000F0F002B1FBF5F002EB0012B1FB7A
:10236000F5F06FF01803584301EB800006EB001006
:10237000B0FBF5F000F00F00D1E7000000140140C1
:1023800000100140FEE700000FB4054B10B503A993
:10239000044A029800F0EAF810BC5DF814FB000053
:1023A000B12D0008440000200907090E002804DBB5
:1023B00000F1E02080F80014704700F00F0000F1F9
:1023C000E02080F8141D704702E008C8121F08C101
:1023D000002AFAD170477047002001E001C1121FA6
:1023E000002AFBD1704700002DE9FF5F82B0002179
:1023F000DDE90430020DDDF840B0034318D044F6A7
:102400001050A2F2FF3242431514119801281FD038
:10241000A5EB0B00401C5FEA000A4FF000064E4F90
:10242000DFF83891B046504615D5CAF1000413E0E4
:10243000119801244AA3012801D16FEA0B010298E7
:10244000119AC0E90031C0E9024206B0BDE8F09F30
:10245000CBF10000DFE704460021404A491842EB77
:102460000450CDE9001012E0E00707D032463B46A9
:1024700040464946FDF7E9FF8046894632463B46DD
:1024800010461946FDF7E1FF06460F466410002C82
:10249000EAD1DDE90401DDE90023BAF1000F06DA33
:1024A000FDF7D3FF42464B46FDF7CFFF05E0FEF7B1
:1024B0003EF842464B46FEF73AF804460E460022E6
:1024C000284BFEF7BBF803D84FF0FF30014607E07A
:1024D0000022254B20463146FDF710FFFEF796F807
:1024E000102409E0002C0ADB0A220023FDF768FE15
:1024F000039B30321A55641E50EA0102F2D1641C6B
:10250000039AC4F111031444119A012A03D0012241
:1025100008430DD10AE0084304D000204FF0110B0E
:10252000119072E7A3EB0B056D1E0DE05B4504DD1A
:102530004FF0000205F1010504E003DA4FF000025C
:10254000A5F10105002AECD002981199C0E90231E9
:10255000C0E9004579E70000000014400000F03FAA
:10256000300000000000F0430000E03F2DE9FF4F85
:1025700095B09B468946064600250FE2252877D16F
:1025800000242746F84A0121059400E0044316F888
:10259000013F203B01FA03F01042F7D130782A289E
:1025A00011D06FF02F033078A0F13002092A16D82D
:1025B000059A44F0020402EB820203EB420210444B
:1025C000761C0590EFE759F8042B0592002A03DAF0
:1025D000504244F40054059044F00204761C3078D4
:1025E0002E2816D116F8010F44F004042A280DD025
:1025F0006FF02F023078A0F13003092B09D807EBD8
:10260000870302EB4303C718761CF3E759F8047BF2
:10261000761C30786C280FD006DC4C2817D0682840
:102620000DD06A2814D104E0742810D07A280FD174
:102630000DE044F400140AE044F4801401E044F492
:1026400040147278824202D104F58014761C761C04
:10265000307866280BD013DC582877D009DC0028A6
:1026600075D04528F6D04628F4D047281AD19DE1E8
:1026700018E0632835D0642879D0652812D195E117
:10268000702873D008DC6728F1D069286FD06E28D5
:102690000DD06F2806D1B5E073282CD0752875D0E1
:1026A000782874D05A46179990476D1C75E1C4F389
:1026B0000250022809D003280DD0D9F800100428B0
:1026C0000DD00D6009F1040967E1D9F80010EA178F
:1026D000C1E90052F6E7D9F800100D80F2E70D705D
:1026E000F0E719F8041B8DF8001000208DF80100A8
:1026F000EA46012003E059F804AB4FF0FF306107D0
:102700004FF0000102D40DE008F101018846B94202
:102710000FDA8045F8DB1AF808100029F4D108E038
:1027200008F1010188468142FADB1AF808100029F5
:10273000F6D105985B46A0EB080721463846179A64
:1027400000F094FA284400EB080507E04DE029E189
:102750000DE01AF8010B5A4617999047B8F1010895
:10276000F7D25B4621463846179A13E142E00A2227
:102770000092C4F302524FF0000A022A08D059F81E
:1027800004CB032A4FEAEC710AD00DE029E02AE0DD
:1027900009F1070121F00702F2E802C1914609E0C0
:1027A0000FFA8CFC4FEAEC71042A03D14FFA8CFC2F
:1027B0004FEAEC71002907DA0A460021DCF1000C2F
:1027C00061EB02012D2202E0220504D52B228DF8B7
:1027D0000420012203E0E20701D02022F7E790461F
:1027E00059E00A2102E010220DE010214FF0000A0A
:1027F00000910BE010224FF0000A44F00404082777
:10280000009203E008224FF0000A0092C4F3025243
:10281000022A05D059F804CB0021032A08D009E088
:1028200009F1070121F00702F2E802C1914605E033
:102830001FFA8CFC042A01D10CF0FF0C4FF00008A9
:10284000220728D5702806D0009B83F0100353EA96
:102850000A0305D00EE040228DF80420012208E092
:102860005CEA010206D030228DF804208DF80500C4
:1028700002229046009B83F0080353EA0A030AD120
:102880005CEA010201D1620705D530228DF80420EF
:102890004FF001087F1E582804D034A003900EA8E2
:1028A00002900DE036A0F9E753466046009AFDF726
:1028B00087FC84460398825C0298401E0290027056
:1028C0005CEA0100F0D1029806A9081A00F1200A7A
:1028D000600702D524F4803400E00127574502DD6B
:1028E000A7EB0A0000E0002000EB0A010090059829
:1028F0004144401A0590E00306D45B462146179AEE
:10290000059800F0B3F90544002706E001A85A46EF
:10291000C05D179990476D1C7F1C4745F6DBE003AF
:102920000CD55B462146179A059800F09FF905449F
:1029300004E030205A46179990476D1C0099481EB4
:1029400000900029F5DC08E0029802995A460078C8
:10295000491C0291179990476D1CBAF10001AAF128
:10296000010AF1DC65E10000092801003031323351
:1029700034353637383961626364656600000000BB
:1029800030313233343536373839414243444546A5
:102990000000000000F058F90544761C307800284B
:1029A0007FF4ECAD19B02846BDE8F08F620700D483
:1029B000062709F1070222F0070CFCE80223E14692
:1029C00003F000485FEA080C02D00FF2702C0DE013
:1029D0005FEA045C02D50FF2682C07E05FEAC47C72
:1029E00002D00FF2602C01E0AFF2700C4FF0FF3814
:1029F00023F00043CDF850C065280CD006DC4528F4
:102A000009D046281DD047283DD13DE0662818D082
:102A100067287ED138E00021112F01DB112000E072
:102A2000781CCDE9000106A90EA8FFF7DDFCDDE961
:102A30000F010E9A03910021009207F1010A0491FF
:102A40004DE04FF000400097CDE9011006A90EA817
:102A5000FFF7CAFCDDE90F0203920E9B11990022D9
:102A6000DDF80CA00093049211B9791C00EB010A67
:102A7000B7EB0A0004D4C0F1FF3007F1010A04905B
:102A8000AAEB0700019044E0012F00DA01270021A2
:102A9000112F01DD112000E03846CDE9000106A923
:102AA0000EA8FFF7A1FCDDE90F010E9A03910021AA
:102AB00004910092BA4621070CD40399514500DADB
:102AC0008A46BAF1010F05DD009AAAF10101515CB5
:102AD000302908D0B84202DA10F1040F06DA0121D9
:102AE000CDE9011015E0AAF10101E9E7002805DCB4
:102AF000049901440491AAEB000102E0411C5145F4
:102B000000DD8A460499401A401C01904FF00040B5
:102B10000290200704D40198504501DBCDF80480D1
:102B200000208DF84F0002980DF14F07B0F1004FD3
:102B300025D02B200E9002984FF0020800280CDAC6
:102B4000404202902D200E9007E00A210298FDF7E6
:102B5000A0FB3031029007F8011DB8F10001A8F187
:102B60000108F2DC02980028EFD1791E0E98087057
:102B7000307800F0200040F0450007F8020D12A860
:102B8000C01B00F107081498007800B1012000EB89
:102B90000A01019801EBE07105984144401A401E7A
:102BA0000590E00306D45B462146179A059800F08D
:102BB0005DF805441498007818B15A461799904763
:102BC0006D1CE00324D55B462146179A059800F05A
:102BD0004DF805441CE00498002807DBDDE90301FB
:102BE000884203DD0098405C179901E01799302076
:102BF0005A469047049805F10105401C049001983D
:102C0000401E019004D12E205A46179990476D1C02
:102C1000BAF10001AAF1010ADDDC05E017F8010BA9
:102C20005A46179990476D1CB8F10001A8F10108A8
:102C3000F4DC5B462146179A0598ABE62D000000B0
:102C40002B000000200000002DE9F0410446002583
:102C50001E461746880404D405E039462020B047B4
:102C60006D1C641EF9D52846BDE8F0812DE9F041C0
:102C7000044600251E469046C80301D5302700E0D3
:102C80002027880404D505E041463846B0476D1C2E
:102C9000641EF9D52846BDE8F081000070B5114CDE
:102CA000049D20600020A060E060082020610E48A4
:102CB0000C0A04704170110A8170C270190A017106
:102CC0004371290A8171C5710848FDF7F4FEC0B24D
:102CD0000028F9D0BDE870400123034A01490348A8
:102CE000FDF78ABDF00200201600002048000020F9
:102CF00000B58BB00020012103900490CDE90601BE
:102D0000CDE90810059000900190029069461448A2
:102D1000FDF7D6FD69461248FDF7D2FD0028F9D12E
:102D20000E20059069460F48FDF7CAFD69460D481B
:102D3000FDF7C6FD0028F9D16420FEF7F3F9084835
:102D4000FEF7BCF902210648FDF744FD0548FEF7F1
:102D5000B5F902210348FDF73DFD0BB000BD0000B1
:102D60004800002070000020518849BA8180918875
:102D700049BAC18001884180128853BA0380591A28
:102D80008268B1F5805F04DD521EA1F500518260BA
:102D900006E011F5805F03DA521C01F500518260F4
:102DA000C16103EB4231828A891A016170470000D8
:102DB0000349C2B24A600A685206FCD57047000057
:102DC000005000400249098849BA01808182704759
:102DD0000E0000201CB5FEF7A7FAFFF743F9FEF737
:102DE000EDFFFEF7A7FFFEF7C7FFFFF79DF8FFF720
:102DF000B7F8FFF77DF8FFF729F8FFF75DF82D48E2
:102E0000FEF73EFEFFF774FF9FED2B2ADFED2B1A36
:102E10009FED2B1ADFED2B0AB2EE040A2A48FFF7CA
:102E2000BDF82A4C284FDFF8A8904FF0000840F278
:102E3000FF1A206888B91F480068406AFDF7FCF94E
:102E4000FDF7F0F94FF6FF7190FBF1F201FB120074
:102E5000204908602068401C2060B9F9040000EE99
:102E6000100A1948F8EEC00AB3EE080AFFF7A0F8F6
:102E7000BDEEC00A00231A4610EE100ACDF80080FD
:102E800001B25046FFF70AFF7868FDF7EFF90546F3
:102E90000E463868FDF7EAF941EC100BCDE9005613
:102EA00053EC102B0CA0FFF76FFA0220FEF73AF953
:102EB000BFE700009800002000A08C450050C346EA
:102EC00000005C426666663F700300200000002040
:102ED000A00200203000002025662C25660A000094
:102EE00000000000000000000102030406070809BA
:102EF0000000000001020304182F00080000002059
:102F000048000000C8230008602F00084800002087
:102F100058070000D823000800000000000000004F
:102F20000024F40000000000000000000000000089
:102F30000000000000000000000000000000000091
:102F40000000000000000000000000000100000080
:102F50001000000000000000000000000000000061
:040000050800018965
:00000001FF
