:020000040800F2
:10000000D005002001010008AF1A000833180008CD
:10001000AD1A00086D010008391F0008000000003B
:10002000000000000000000000000000B31A0008FB
:100030008901000800000000B11A00081901000839
:100040001B0100081B0100081B0100081B01000820
:100050001B0100081B0100088B0100081B010008A0
:100060001B0100081B010008910100081B0100088A
:100070001B0100081B0100081B0100081B010008F0
:10008000710100087D0100081B0100081B01000828
:100090001B0100081B0100081B0100089701000854
:1000A0001B0100081B0100081B0100081B010008C0
:1000B0001B0100081B010008051B00081B010008AC
:1000C0001B0100081B0100081B0100081B010008A0
:1000D0001B0100081B0100082D1F00081B01000860
:1000E0001B0100081B0100081B010008DFF80CD0F1
:1000F00000F02AF800480047E11F0008D005002062
:100100000648804706480047FEE7FEE7FEE7FEE7B1
:10011000FEE7FEE7FEE7FEE7FEE7FEE7031B00085B
:10012000ED000008D2B201E000F8012B491EFBD21D
:1001300070470022F6E710B513460A4604461946F2
:10014000FFF7F0FF204610BD064C074D06E0E068C3
:1001500040F0010394E8070098471034AC42F6D30E
:10016000FFF7C8FF4C2000086C200008FEE70000E5
:10017000014800F083B80000FC000020014800F0B6
:100180007DB80000400100207047012000F0A0B9B8
:10019000102000F09DB9202000F09AB9704710B5EA
:1001A00090F821100022022905D00421816380F8F3
:1001B0002020012010BD01680B6823F00E030B60A6
:1001C00001680B6823F001030B6090F84030C46BAA
:1001D000012101FA03F3636080F8211080F82020E8
:1001E000104610BD10B590F821100024022903D04C
:1001F0000421816301243DE001680A6822F00E02B7
:100200000A6001680A6822F001020A601A4A01685D
:10021000914201D1012121E0174A1432914201D1CA
:1002200010211BE0144A2832914201D1891515E0B2
:10023000114A3C32914201D189140FE00E4A5032EA
:10024000914202D14FF4803108E00B4A643291426E
:1002500002D14FF4801101E04FF08071064A083A54
:100260005160012180F82110002180F82010416B9D
:1002700001B18847204610BD080002402DE9F05F1B
:10028000C16B0C6801680B68D0F840C0042202FA08
:100290000CF2494DDFF824A1494E4A4FDFF828B14E
:1002A000DFF828E122422CD05A072AD50A689206A4
:1002B00003D40A6822F004020A600168A94201D14D
:1002C000042219E0514501D1402215E0B14202D18A
:1002D0004FF4806210E0B94202D14FF480420BE04B
:1002E000594502D14FF4802206E0714502D14FF406
:1002F000800201E04FF080622F4908394A60C16AEC
:100300003BE04FF0020808FA0CF818EA040F4FF02F
:1003100000094FF0010235D05FEA837832D50B68CF
:100320009B0605D40B6823F00A030B6080F821209C
:100330000168A94201D1022219E0514501D12022D0
:1003400015E0B14202D14FF4007210E0B94202D17F
:100350004FF400520BE0594502D14FF4003206E051
:10036000714502D14FF4001201E04FF000721249C2
:1003700008394A6080F82090816A00291AD0BDE8C7
:10038000F05F0847082505FA0CF5254212D01B0737
:1003900010D50B6823F00E030B6090F84010C36B70
:1003A00002FA01F15960826380F8212080F82090E0
:1003B000016BE2E7BDE8F09F080002401C0002402C
:1003C0003000024044000240580002406C000240ED
:1003D00030B528B308C8134914221944B1FBF2F10F
:1003E0008900C16310498163022141771A6843F68D
:1003F000F0718A43D0E900142143D0E902452C432F
:100400002143046921434469214384692143114301
:10041000196000214163012242770177084630BD0F
:10042000012030BDF8FFFDBF0000024070B504465A
:1004300000F058F90546601C02D0044800780444D6
:1004400000F050F9401BA042FAD370BD0800002014
:1004500010B504461E2001F0B5FD4FF48051194837
:1004600000F032F918490520184A1423012C0BD04A
:10047000102C14D0202C24D1CC68641CCC60E10753
:1004800018D01168C86317E04C68641C4C60E10721
:1004900002D0116848630FE0106843630CE08C6879
:1004A000641C8C60E10702D01168886304E0106866
:1004B000836301E01068C363BDE810406420FFF768
:1004C000B5BF10BD00080140180000202800002022
:1004D000044910B50A68024202D00860FFF7B8FF6D
:1004E00010BD0000140401402DE9F84FDFF8B89169
:1004F000002409F1040A0AF1040B23460F270BF12B
:10050000040EC9E00125A5402A40AA427DD1674ECC
:10051000D1F804C0ACEB0608B44532D014DCBCF111
:10052000030F3AD009DCBCF1000F2AD0BCF1010F57
:100530001CD0BCF1020F31D11DE0BCF1110F17D05E
:10054000BCF1120F2AD119E0B8F5881F19D006DCCA
:10055000B8F5803F15D0B8F5801F1FD111E0B8F570
:10056000001F0ED0B8F5041F18D10AE0CB6815E0C3
:10057000CB681B1D12E0CB6808330FE0CB680C334F
:100580000CE08B682BB1012B4FF0080303D04561C1
:1005900004E0042302E0056100E00023FF2A01D803
:1005A000064601E000F104064FEA840501D9A5F1F1
:1005B0002005D6F8008007FA05FC28EA0C0803FAA3
:1005C00005F548EA0508C6F800804D68ED0062D5DB
:1005D000374DAE6946F00106AE61AD6924F0030601
:1005E00005F001050095334D06EB050CDCF80850CD
:1005F000A607360F07FA06F825EA0805DFF8B880DF
:10060000404503D14FF0000817E044E0DFF8AC802C
:10061000404502D14FF001080FE0DFF8A4804045CB
:1006200002D14FF0020808E0DFF89880404502D17F
:100630004FF0030801E04FF0040808FA06F848EA12
:100640000508CCF808804D68D9F80060ED034D46E8
:1006500001D5164300E096432E604D68DAF800603D
:10066000AD03554601D5164300E096432E604D6814
:10067000DBF80060ED025D4601D5164300E09643CD
:100680002E604D68DEF80060AD02754601D5164358
:1006900000E096432E60641C0D682A46E5407FF416
:1006A00031AFBDE8F88F00000004014000001110D8
:1006B000001002400000014000080140000C014011
:1006C0000010014000140140C26821EA02030A4000
:1006D00043EA0241016170470AB1016170470904B0
:1006E000FBE7000001488068704700000800002018
:1006F0000248816802781144816070470800002038
:10070000074810B5016841F010010160032000F0B6
:100710008FF8002000F006F800F03EF8002010BD31
:100720000020024000B5014687B000221E2000F0E4
:100730005FF81E2000F04EF81348C16941F0040133
:10074000C161C06905A900F004000690684600F088
:1007500017F900F035F90D494000B0FBF1F10D48F3
:100760000B4A491E0260416040F2E7320021C0E9B5
:100770000321816000F06AFB10B1012007B000BDC9
:10078000044800F0AFFBF9E70010024040420F00C0
:1007900000080040840100200C4808B5816941F040
:1007A00001018161816901F001010091C16941F09C
:1007B0008051C161C06900F08050009004484168D8
:1007C00021F0E06141F00071416008BD001002407D
:1007D00000000140002809DB00F01F0201219140C8
:1007E0004009800000F1E020C0F8001170470000CF
:1007F000F0B40E4B1B680C46C3F30223C3F107058C
:10080000042D00D90425191D072901D2002300E079
:10081000DB1E012606FA05F1491E214099409E4043
:10082000761E16403143F0BC01F087BB0CED00E0B2
:10083000064900F0070208684FF6FF03184040EA37
:100840000220034A10430860704700000CED00E0EE
:100850000000FA052DE9F0470F46050061D0434E30
:10086000306800F00700B84209D2306820F0070075
:1008700038433060306800F00700B84251D1286832
:100880003B4C810712D5400703D5606840F4E06017
:1008900060602878000703D5606840F460506060AD
:1008A0006068A96820F0F000084360602878C007FD
:1008B00028D06868012810D02168022810D0890744
:1008C00000292EDA616821F0030101436160FFF71E
:1008D00009FF804641F288390DE021688903EFE77E
:1008E0008901EDE7FFF7FEFEA0EB0801494502D9BB
:1008F0000320BDE8F0876068696800F00C00B0EB89
:10090000810FEFD1306800F00700B8420BD9306892
:1009100020F0070038433060306800F00700B8422C
:1009200001D00120E5E72878400705D56068E9682F
:1009300020F4E060084360602878000706D560680E
:10094000296920F4605040EAC100606000F058F866
:100950006168084AC1F30311515CC8400649086048
:1009600006480068FFF7DEFE0020C2E700200240D4
:100970000010024034200008140000200C00002069
:100980000F2202600C4A536803F00303436053686C
:1009900003F0F0038360536803F4E063C3605268BC
:1009A0004FF4E06303EAD20202610448006800F0F9
:1009B000070008607047000000100240002002405D
:1009C0000448054900684968044AC1F30221515CA2
:1009D000C840704714000020001002404420000866
:1009E0000448054900684968044AC1F3C221515CC2
:1009F000C840704714000020001002404420000846
:100A000012A185B00FC98DE80F0014A0144A006828
:100A100004905168134801F00C03042B10D0082BEC
:100A20000ED1C1F38343C9031DF803000AD55168F1
:100A300004AAC1F34041515C0A4A5043B0FBF1F0B3
:100A400005B0704708494843FAE70000020304056F
:100A5000060708090A0B0C0D0E0F1010010200000A
:100A60000010024000127A0000093D002DE9F84F05
:100A7000040070D02078C04DC00749D06868C0F32A
:100A80008100012807D06868C0F38100022809D1DD
:100A90006868C00306D52868800339D560680028D7
:100AA000E7D035E06068B0F5803F0BD010B1B0F50D
:100AB000A02F11D0286820F480302860286820F406
:100AC000802002E0286840F480302860606890B19F
:100AD000FFF708FE06460AE0286840F480202860F8
:100AE000F0E700BFFFF7FEFD801B642873D828687D
:100AF0008003F7D50CE0FFF7F5FD064605E000BFE3
:100B0000FFF7F0FD801B6428F0D828688003F7D435
:100B100020789A4E80074FF001094FF0000839D530
:100B2000686810F00C0F07D06868C0F381000228D5
:100B300009D16868C00306D42868800714D52069E5
:100B4000012808D110E02069B0B1C6F80090FFF785
:100B5000C9FD074605E00AE1FFF7C4FDC01B0228F6
:100B6000C4D828688007F7D52868616920F0F800A4
:100B700040EAC10028600DE0C6F80080FFF7B2FD32
:100B8000074604E0FFF7AEFDC01B022823D8286803
:100B90008007F7D4207800072CD57948A169D9B10E
:100BA000C0F80090FFF79EFD074604E0FFF79AFDAE
:100BB000C01B02280FD8686A8007F7D571484FF428
:100BC000FA510068B0FBF1F0009000BF0098411EA0
:100BD0000091FAD20EE080E0C0F80080FFF782FDBD
:100BE000074604E0FFF77EFDC01B022875D8686A3F
:100BF0008007F7D42078400760D5E8690027C00057
:100C000008D4E86940F08050E861E869012700F005
:100C1000805000905C480168C90513D40168834680
:100C200041F480710160FFF75DFD824606E000BF80
:100C3000FFF758FDA0EB0A0064284ED8DBF800004F
:100C4000C005F5D5E06801280AD008B1052813D001
:100C5000286A20F001002862286A20F0040002E0DF
:100C6000286A40F001002862E06841F2883B98B1B0
:100C7000FFF738FD82460BE0286A40F00400286246
:100C8000EEE700BFFFF72EFDA0EB0A0159455AD849
:100C9000286A8007F6D50CE0FFF724FD824605E0C0
:100CA000FFF720FDA0EB0A0159454CD8286A8007C0
:100CB000F6D41FB1E86920F08050E861E06988B39C
:100CC0006968C1F38101022944D00228C6F8608016
:100CD00004D0FFF707FD044638E034E0FFF702FDDB
:100CE000074604E0FFF7FEFCC01B02282BD828684B
:100CF0008001F7D4206AB0F5803F05D16868A1680B
:100D000020F4003008436860D4E9080108436968AA
:100D100021F4741108436860C6F86090FFF7E2FCA4
:100D2000044606E025E000BFFFF7DCFC001B0228BC
:100D300009D828688001F7D51BE000BFFFF7D2FC77
:100D4000001B022802D90320BDE8F88F2868800123
:100D5000F4D40EE00128F7D06868226A00F48031EC
:100D6000914204D1616A00F47010884201D00120E0
:100D7000EAE70020E8E700000010024000004242DD
:100D80008004424214000020007000407047704709
:100D900010B590F83C20012A22D0012280F83C2096
:100DA000CA688C6822F4407222434C6822F4806244
:100DB00022430C6822F4006222430C6922F4805220
:100DC00022434C6922F400522243C969002322F4D1
:100DD00080420A4301684A6480F83C30002010BD1C
:100DE000022010BD70B590F83C20012A26D00124C5
:100DF00080F83C40022280F83D2003685A689D68D4
:100E000022F070060A6832435A600D4B02689A421B
:100E100008D0B2F1804F05D00A4B9A4202D00A4B5B
:100E20009A4204D1496825F080031943916080F803
:100E30003D40002180F83C10084670BD022070BD86
:100E4000002C0140000400400008004010B50400E0
:100E500003D094F83D0010B107E0012010BD002040
:100E600084F83C00204600F01FF8022084F83D0082
:100E7000211D206800F04CFE012084F8460084F813
:100E80003E0084F83F0084F8400084F8410084F874
:100E9000420084F8430084F8440084F8450084F854
:100EA0003D00002010BD000008B50C4A01680C4848
:100EB000914207D1816941F400618161806900F448
:100EC000006009E0B1F1804F07D1C16941F0010133
:100ED000C161C06900F00100009008BD002C014014
:100EE0000010024090F83D10012901D00120704708
:100EF000022180F83D100168CA6842F00102CA6010
:100F000000680B49884208D0B0F1804F05D00949EC
:100F1000884202D00849884204D1816801F0070163
:100F2000062903D0016841F00101016000207047EB
:100F3000002C0140000400400008004070B5044649
:100F400090F83C00012817D0012584F83C5002207D
:100F500084F83D002068826822F0770222F47F4204
:100F600082600868502830D00DDC20284DD005DC88
:100F700098B310283BD148E0022070BD302844D0FF
:100F8000402834D139E0602828D0702806D0B0F548
:100F9000805F2CD0B0F5005F29D10AE0CB68D1E9A1
:100FA0000121206800F0F7FD2068816841F0770199
:100FB00009E0CB68D1E90121206800F0ECFD206850
:100FC000816841F48041816011E0CA684968206805
:100FD00000F096FE5021206807E016E0CA684968D4
:100FE000206800F09EFE6021206800F0DEFD84F89D
:100FF0003D50002084F83C0070BDCA6849682068F4
:1010000000F07EFE40212068EFE72268014610468E
:10101000EBE7704770B50446006801694FF00005C2
:10102000C943890715D4C168C943890711D4E91E8A
:10103000016101202077206880698007204602D066
:10104000FFF7E7FF04E000F0BFF8204600F04EF99C
:10105000257720680169C943490717D4C168C94386
:10106000490713D46FF00401016102202077206842
:10107000806910F4407F204602D0FFF7CAFF04E0E9
:1010800000F0A2F8204600F031F9257720680169C8
:10109000C943090716D4C168C943090712D46FF0C0
:1010A00008010161042020772068C069800720467C
:1010B00002D0FFF7AEFF04E000F086F8204600F013
:1010C00015F9257720680169C943C90617D4C16895
:1010D000C943C90613D46FF01001016108202077BD
:1010E0002068C06910F4407F204602D0FFF791FFCE
:1010F00004E000F069F8204600F0F8F82577206851
:101100000169C943C90708D1C168C943C90704D1E6
:10111000891E0161204600F039F920680169C94340
:10112000090609D4C168C943090605D46FF08001D6
:1011300001612046FFF72AFE20680169C94349067C
:1011400009D4C168C943490605D46FF04001016163
:10115000204600F025F920680169C94389060BD4AF
:10116000C168C943890607D46FF020010161204698
:10117000BDE87040FFF70BBE70BD000000B585B044
:101180000021009101910291039100680B4988426E
:1011900012D10B48816941F004018161806969467F
:1011A00000F0040004904FF4706000900220019061
:1011B00003900448FFF798F905B000BD002C0140EA
:1011C0000010024000080140704770B5044690F8D6
:1011D0003C000D4601280AD0012084F83C0042B1B1
:1011E000042A18D0082A2AD00C2A4DD139E002202E
:1011F00070BD206800F0E2FC2068816941F00801C0
:1012000081612068816921F0040181612068816920
:101210002A69114311E0206800F0F8FC2068816918
:1012200041F4006181612068816921F480618161FC
:10123000206881692A6941EA0221816124E02068ED
:1012400000F010FD2068C16941F00801C16120680B
:10125000C16921F00401C1612068C1692A69114393
:1012600011E0206800F02AFD2068C16941F40061A6
:10127000C1612068C16921F48061C1612068C169D0
:101280002A6941EA0221C161002084F83C0070BD56
:1012900010B5040003D094F83D0010B107E0012020
:1012A00010BD002084F83C00204600F01EF802200B
:1012B00084F83D00211D206800F02AFC012084F8FC
:1012C000460084F83E0084F83F0084F8400084F82B
:1012D000410084F8420084F8430084F8440084F814
:1012E000450084F83D00002010BD704770470000A5
:1012F00010B50446022249B104290ED0082913D0A2
:1013000094F84100012816D0012010BD94F83E0049
:101310000128F9D184F83E200FE094F83F0001281D
:10132000F2D184F83F2008E094F840000128EBD186
:1013300084F8402001E084F841200122206800F078
:101340001DFC0F492068884203D1426C42F40042E0
:1013500042642068884208D0B0F1804F05D0094926
:10136000884202D00849884204D1816801F007010F
:10137000062903D0016841F001010160002010BD81
:10138000002C0140000400400008004000680349B0
:10139000884201D1FFF7ACB9704700000008004057
:1013A0007047704770470000F8B50268044610683F
:1013B000D168536910F00F0F4FF0000553D003F0C0
:1013C000010601F4907737435FD0C20705D0CA0504
:1013D00003D5226C42F001022264420705D5DA07E8
:1013E00003D0226C42F002022264820705D5DA079C
:1013F00003D0226C42F004022264020707D501F0F8
:101400002002324303D0226C42F008022264226C94
:10141000002A34D0800604D5880602D5204600F084
:10142000B2FC20684069216CC0F38010090700D429
:1014300030B3204600F08FFC2068416949061BD577
:10144000416921F040014161A06BA8B15849416355
:10145000A06BFEF7C7FE002811D0A06B416B01B056
:10146000BDE8F040084783060FD58B060DD5204612
:10147000BDE8F84000F087BC2046FFF793FFF8BDB9
:101480002046FFF78FFF2564F8BD266B2023012E31
:1014900052D1C60650D5CE064ED510685068009081
:1014A000506940062AD5A16B086840680004000C0A
:1014B000EAD0A68D8642E7D9E0858869202818D031
:1014C000D06820F48070D0602068416921F001016B
:1014D00041612068416921F04001416184F83E305A
:1014E00025632068C16821F01001C160A06BFEF780
:1014F00056FEA08DE18D401A81B219E0A08DE18DDC
:10150000401A81B2E08D0028BED00029BCD0D0683E
:1015100020F49070D0602068426922F0010242619C
:1015200084F83E3025632068C26822F01002C26051
:101530002046FFF736FFF8BD05062BD50D0629D549
:1015400094F83D002128F6D1A068B0F5805F01D164
:101550002069B0B1206A411C21622168007848608E
:10156000E08C401E0004000CE084E4D12068C168D7
:1015700021F08001C1602068C16841F04001C16074
:10158000F8BD206A0088C0F308005060206A801C03
:101590002062E5E74006F3D54806F1D5D16820463C
:1015A00021F04001D16084F83D3000F041F9F8BDF0
:1015B000471D000870B5040004D094F83D000025D4
:1015C00010B106E0012070BD84F83C50204600F0C8
:1015D00023F8242084F83D002068C16821F40051DC
:1015E000C160204600F02AFC2068016921F4904186
:1015F00001612068416921F02A0141612068C168C8
:1016000041F40051C1602564202084F83D0084F835
:101610003E00002070BD0000F0B585B000240646F5
:10162000009401940294039400682D49884254D197
:101630002C48C16941F40031C161C16901F4003134
:101640000491816941F0040181618069264D00F0B7
:1016500004000490042000900220019003200390D5
:1016600069462846FEF740FF0820CDE90004694698
:1016700028460294FEF738FF1D4D1C488027C5E917
:101680000004C5E9024720202C61C5E90540284631
:10169000EC61FEF79DFE08B1FEF780FDB5636E625A
:1016A000134D12484435143001C5102091C510481F
:1016B00045F8104944306C61AC61EC61FEF788FE7E
:1016C00008B1FEF76BFD75630022022126206E62D1
:1016D000FFF78EF82620FFF77DF805B0F0BD00007B
:1016E0000044004000100240000801406C0002402D
:1016F000FC00002090F83E30202B0ED159B152B1A1
:1017000090F83C30012B08D0012380F83C300023B6
:10171000036300F0EFBB0120704702207047000018
:101720002DE9F04700683749884268D1364C37497F
:10173000142620780978DFF8D890364D0A274FF420
:10174000805888420AD160680022401C606041468F
:101750004846FEF7C1FF286846630AE02E4909782B
:10176000884209D1012241464846FEF7B5FF286864
:1017700047636420FEF75AFE28492078097888429A
:101780000AD1A0680022401CA06041464846FEF7EE
:10179000A3FF286886630AE021490978884209D1B5
:1017A000012241464846FEF797FF28688763642078
:1017B000FEF73CFE1B492078097888420AD1E06890
:1017C0000022401CE06041464846FEF785FF28683D
:1017D000C6630AE014490978884209D101224146CA
:1017E0004846FEF779FF2868C7636420FEF71EFEAF
:1017F000BDE8F047012204490C48FFF77BBFBDE874
:10180000F087000000440040180000200000002085
:1018100000080140280000200100002002000020F4
:10182000030000200400002005000020B800002074
:101830007047FEE70D4808B5416941F0010141617B
:101840004069002200F00100009011461020FEF7D0
:10185000CFFF1020FEF7BEFF002211461120FEF739
:10186000C7FFBDE808401120FEF7B4BF00100240DA
:1018700070B586B000242548009401940294039426
:10188000816941F020018161816901F020010491A9
:10189000816941F00401816180691D4E00F00400FE
:1018A0004FF480550490002229463046FEF714FF7D
:1018B000312000901748CDE9010469463046FEF713
:1018C00013FE01200095CDE9010402200390694632
:1018D0003046FEF709FE002201210620FEF788FFB0
:1018E0000620FEF777FF002201210A20FEF780FF85
:1018F0000A20FEF76FFF002201211720FEF778FF74
:101900001720FEF767FF06B070BD00000010024010
:10191000000801400000111010B596B000240F948B
:1019200010941194129413941C2168461494FEF799
:1019300000FC202107A8FEF7FCFB34483249016077
:1019400041F61F41C0E90114C721C0E903144461F5
:101950008461FFF77BFA08B1FEF720FC4FF480505A
:101960000F900FA92948FFF7E9FA08B1FEF716FC16
:101970002648FFF78DFC08B1FEF710FC139413A95D
:1019800022481494FFF72EFA08B1FEF707FC6020F6
:10199000CDE900040294039404940594002269465E
:1019A0001A480694FFF711FC08B1FEF7F7FB042272
:1019B00069461648FFF709FC08B1FEF7EFFB08225D
:1019C00069461248FFF701FC08B1FEF7E7FB0C225D
:1019D00069460E48FFF7F9FB08B1FEF7DFFB0794F5
:1019E000089409944FF400500A94CDE90B4007A9DC
:1019F00006480E94FFF7CCF908B1FEF7CFFB034879
:101A0000FFF7BCFB16B010BD002C014028000020E1
:101A100010B586B0002416480094019402940394F3
:101A200004944FF08041059401604721C0E90114FE
:101A30004FF6FF71C0E903148461FFF707FA08B19C
:101A4000FEF7ACFB4FF48050009069460848FFF762
:101A500075FA08B1FEF7A2FB049404A904480594A2
:101A6000FFF7C0F9002801D0FEF798FB06B010BDC3
:101A7000700000200C4810B50A4901604FF416515F
:101A80004160002181600C22C160C0E904128161C3
:101A9000C161FFF78FFD002803D0BDE81040FEF7BD
:101AA0007DBB10BD00440040B8000020FEE7704739
:101AB0007047704730B58FB028216846FEF739FB74
:101AC00014210AA8FEF735FB01210804CDE9001016
:101AD0000024029402250491CDE907504FF4E01050
:101AE00009906846FEF7C2FF0F20CDE90A0568029B
:101AF000CDE90C4002210AA80E94FEF7ABFE0FB010
:101B000030BD70470148FFF785BA0000840100200E
:101B1000F0B50268164B174C174D4FF080479842AE
:101B200005D0B84203D0A04201D0A84203D122F090
:101B300070064A683243984205D0B84203D0A042AA
:101B400001D0A84203D122F44074CA6822434C69F0
:101B500022F08002224302608A68C2620A688262BE
:101B6000984201D10969016301214161F0BD000082
:101B7000002C0140000400400008004010B501F0B6
:101B80001F030121046A99408C430462016A9A4050
:101B90001143016210BD10B5846842EA032224F4A7
:101BA0007F440A432243826010BD826822F07002A3
:101BB0000A4342F0070181607047000030B5026AB5
:101BC00022F001020262026A4368846924F073050C
:101BD0000C682C4322F002058A682A430A4DA84269
:101BE0000BD122F00805CA6823F440732A434D69DB
:101BF00022F004021D438B692B43436084614968D2
:101C00004163026230BD0000002C014030B5026A21
:101C100022F010020262026A436884690D6824F4AB
:101C2000E64444EA05248D6822F0200242EA0512C7
:101C30000B4DA8420ED1CD6822F0800242EA051277
:101C40004D6923F4406343EA85038D6922F0400225
:101C500043EA85034360846149688163026230BD61
:101C6000002C014030B5026A22F480720262036ADD
:101C70004268C46923F4007324F073050C682C4394
:101C80008D6843EA05230C4DA8420ED1CD6823F49C
:101C9000006343EA05234D6922F4405242EA0512EB
:101CA0008D6923F4806342EA05124260C461496889
:101CB000C163036230BD0000002C014030B5026AF0
:101CC00022F480520262046A4268C3690D6823F4F8
:101CD000E64343EA05238D6824F4005444EA0534BE
:101CE000064DA84204D14D6922F4804242EA851291
:101CF0004260C36149680164046230BD002C014048
:101D000010B5036A046A24F001040462846924F0B3
:101D1000F00444EA021423F00A020A4384610262D6
:101D200010BD10B5036A23F0100303628369046ACF
:101D300023F4704343EA023224F0A00343EA011182
:101D40008261016210BD10B5406A0021C185C18465
:101D5000FFF728FB10BD0168CA6822F49072CA60C0
:101D600001684A6922F001024A61016B012904D12C
:101D70000168CA6822F01002CA60202180F83E1073
:101D800000210163704708B590F83E10222901D068
:101D9000022008BD82684FF480539A4201D1016944
:101DA00021B1816A9A421BD04AB10AE00268816A75
:101DB0005268C2F308020A80816A891C08E002693D
:101DC00072B10268526802F07F020A70816A491C8F
:101DD0008162C18D491E0904090CC18503D019E037
:101DE00002685268F1E70168CA6822F02002CA60FE
:101DF0000168CA6822F48072CA6001684A6922F0E8
:101E000001024A61202180F83E10016B012903D0B4
:101E1000FFF786FC002008BD002101630168CA6845
:101E200022F01002CA6001680A68D20602D50A6868
:101E300049680091818DFFF7B4FAEBE770B504466D
:101E400000680169E26821F4405111430161216990
:101E5000A0680843616908432168CA6841F20C63BD
:101E60009A430243CA6020684169A26921F4407123
:101E7000114341611E492068884202D1FEF7B0FD3E
:101E800001E0FEF79DFD00EBC00101EB0012606870
:101E900064218000B2FBF0F3B3FBF1F36FF018069E
:101EA0007343B2FBF0F5B2FBF0F605EB830532238A
:101EB00003EB0515B5FBF1F5B6FBF1F605F0F00502
:101EC00005EB0615B2FBF0F6B2FBF0F0B0FBF1F05B
:101ED0006FF01802504306EB800003EB0010B0FBDC
:101EE000F1F0216800F00F002844886070BD000008
:101EF0000038014081628285C2850021016422226E
:101F000080F83E2080F83C100168CA6842F4807274
:101F1000CA6001684A6942F001024A610068C1680A
:101F200041F02001C1600020704700000148FFF728
:101F30003BBA0000B8000020FEE70907090E0028A0
:101F400004DB00F1E02080F80014704700F00F007F
:101F500000F1E02080F8141D704702E008C8121F4D
:101F600008C1002AFAD170477047002001E001C182
:101F7000121F002AFBD170472DE9F0414FF0E024F9
:101F80000546A769FEF7AEFB064605EBC500C50092
:101F9000BD420BD9FEF7A6FBB042FBD00849781B27
:101FA0000844A1698142FCD8BDE8F0817D1BA0698D
:101FB000A842F9D9FEF796FBB042F8D0F4E700004A
:101FC0004019010070B5054600244FF47A7603E00D
:101FD0003046FFF7D1FF641CAC42F9D370BD00005E
:101FE000FEF78EFBFFF766FDFFF742FCFFF722FCD2
:101FF000FFF792FCFFF70CFDFFF73CFD0A48FEF7E8
:1020000071FF012209490A48FFF774FB00210648C5
:10201000FFF76EF904210448FFF76AF90821024826
:10202000FFF766F9FEE700002800002018000020F6
:10203000B8000020000000000000000001020304BE
:102040000607080900000000010203046C200008D4
:1020500000000020280000005A1F000894200008FB
:1020600028000020A80500006A1F00083031323324
:1020700034350000010000001000000000000000E6
:102080000024F40000000000000000000000000038
:04209000000000004C
:04000005080000ED02
:00000001FF
