:020000040800F2
:10000000180500209D0100089F17000883160008AE
:100010009D170008A90200081D1900080000000033
:10002000000000000000000000000000A31700080E
:10003000B103000800000000A1170008A517000880
:10004000B7010008B7010008B7010008B7010008B0
:10005000B7010008B7010008B7010008B7010008A0
:10006000B7010008B7010008B7010008B701000890
:10007000B7010008B7010008B7010008B701000880
:10008000B7010008B7010008B7010008D102000855
:10009000AD020008B9020008C5020008B701000857
:1000A000B7010008B7010008B7010008B701000850
:1000B000B7010008B7010008B7010008B701000840
:1000C000B7010008B7010008B7010008B701000830
:1000D000B7010008B7010008B7010008B701000820
:1000E000B7010008B7010008B7010008B701000810
:1000F000B7010008B7010008B7010008B701000800
:10010000B7010008B7010008B7010008B7010008EF
:10011000B7010008B7010008B70100084918000836
:10012000B7010008B7010008B7010008B7010008CF
:10013000B7010008B7010008B70100080103000873
:10014000DD020008E9020008F5020008B701000816
:10015000B7010008B7010008B7010008B70100089F
:10016000B7010008B7010008B7010008B70100088F
:10017000B7010008B7010008B7010008000000003F
:10018000B7010008B7010008DFF80CD000F07AF8DA
:10019000004800475D190008180500200648804700
:1001A00006480047FEE7FEE7FEE7FEE7FEE7FEE75C
:1001B000FEE7FEE7FEE7FEE72D18000889010008CC
:1001C0002DE9F05F0546002092469B46884606468C
:1001D000814640241BE0284641464746224600F01F
:1001E00041F853465A46C01A914110D31146184659
:1001F000224600F028F82D1A67EB01084F462246E8
:100200000120002100F01FF817EB00094E41201ECD
:10021000A4F10104DFDC484631462A464346BDE8E6
:10022000F09FD2B201E000F8012B491EFBD27047CB
:100230000022F6E710B513460A4604461946FFF7B2
:10024000F0FF204610BD202A04DB203A00FA02F11C
:10025000002070479140C2F1200320FA03F31943B4
:1002600090407047202A04DB203A21FA02F0002156
:10027000704721FA02F3D040C2F1200291400843B6
:1002800019467047064C074D06E0E06840F0010350
:1002900094E8070098471034AC42F6D3FFF778FF94
:1002A0000C1A00082C1A0008FEE70000014800F0B4
:1002B00008BA000084000020014800F002BA0000E3
:1002C00084000020014800F0FCB9000084000020F8
:1002D000014800F0F6B9000084000020014800F059
:1002E000F0B90000AC000020014800F0EAB90000BD
:1002F000AC000020014800F0E4B90000AC00002090
:10030000014800F0DEB90000AC000020F0B58BB071
:1003100000240125CDE906450594089504940E2690
:1003200000940194029469461E480996039400F0D3
:10033000B7F8CDE9044644F2200744F24000CDE985
:10034000007044F26000029008954FF48140CDE9BE
:100350000654039069460996134800F0A1F80F204F
:100360000895CDE905044FF47E4000970794CDE948
:1003700001400E480996CDE9030569460A4800F098
:100380008FF8084800F0FCFB074800F0F9FB122149
:10039000044800F00FF81221034800F00BF80BB0EE
:1003A000F0BD000084000020AC000020E0FF1F0032
:1003B0007047704790F82020012A07D0022A05D004
:1003C000416A41F48021416201207047006842691E
:1003D0000A43426100207047F0B590F8205004684D
:1003E000A468012D05D0022D03D0416A41F480217B
:1003F00053E014F0406F01D1E5004BD5C4F3016424
:10040000022C03D9416A41F4000146E00125A540D0
:100410001D608D684FF4C0739DB1CE6835434E6842
:1004200045EAC605066803EB0417F5514FF4C2759B
:10043000076805EB04150E697E51097D012905D079
:1004400009E00E88CD6845EA4655EBE701684E594C
:1004500046F480764E511179D2F805504FF4C676A5
:1004600041EA0525016806EB04168D511178D2F892
:1004700001204FF4C47541EA0221026805EB04151E
:100480005151006803EB0411425842F001024250FE
:100490000020F0BD416A41F4001141620120F0BD2D
:1004A00010B590F82020012A07D0022A05D0416A11
:1004B00041F480214162012010BD3B48D0F8002268
:1004C00042F00102C0F80022D0F8002222F47C524F
:1004D000C0F80022D0F800224B6A42EA0322C0F89A
:1004E00000220A7D02F01F0301229A40D0F81C323C
:1004F0009343C0F81C32CB69B3B9D0F80C329343A4
:10050000C0F80C328C894B6864F31F434C6900EBD4
:10051000C404C4F840320C890B6864F31F434C696F
:1005200000EBC404C4F84432CB69012B16D1D0F8D7
:100530000C321343C0F80C320C884B6864F31F4331
:100540004C6900EBC404C4F840320C89CB6864F3F6
:100550001F434C6900EBC404C4F844328B69002B80
:10056000D0F804320ED01343C0F804320B69002BCC
:10057000D0F8143208D01343C0F81432096A0129A4
:1005800004D008E09343EFE79343F5E7D0F81C125B
:100590001143C0F81C12D0F8001221F00101C0F87C
:1005A0000012002010BD000000640040704730B50C
:1005B00090F82040012C05D0022C03D0416A41F470
:1005C00080215DE00468002955D02469A40754D037
:1005D0004FF4D874056804EB01142D5915F0040587
:1005E000956005682D594ED0ED08556005682C5969
:1005F00004F00204D4604FF4DA74056804EB0114CB
:100600002D5905F00F05156105682D59C5F307250E
:10061000956105682C59240C54614FF4DC72046810
:1006200002EB0112A4581C700468A458240A5C70E0
:100630000468A458240C9C700468A258120EDA7046
:100640004FF4DE72046802EB0112A4581C710468B6
:10065000A458240A5C710468A458240C9C71046892
:10066000A258120EDA71006881B1016941F02001CF
:100670000161002030BDE468A8E7416A41F400113F
:100680004162012030BD6D0D1560AFE7C16841F0DA
:100690002001C160EDE70246002092F820100129F8
:1006A00001D002290CD111688A68520100D50120BD
:1006B0008A68120100D5401C8968C90000D5401C19
:1006C00070472DE9F05F0546006800244669D0F8C0
:1006D00004908768D0F80CB0D0F810A0D0F818803B
:1006E000F10748D0F90714D001218160B80703D57C
:1006F000284600F072FA0CE0780702D54FF4006447
:1007000007E0380702D54FF4805402E0284600F095
:1007100063FAF80516D529684FF480708860B8052B
:1007200003D5284600F05BFA0CE0780502D544F4C6
:10073000005407E0380502D544F4804402E028461E
:1007400000F04CFAF80316D529684FF48030886021
:10075000B80303D5284600F044FA0CE0780302D52C
:1007600044F4004407E0380302D544F4803402E046
:10077000284600F035FA300707D55FEACB6004D58C
:100780002968102044F40074C86070074FF008070F
:1007900007D55FEA0B7004D52868C760284600F0CB
:1007A000C9F9B00706D52868C068800702D0284676
:1007B00000F0C2F9700607D55FEACA6004D529685F
:1007C000102044F480640861B00607D55FEA0A701F
:1007D00004D528680761284600F0BEF9F00606D562
:1007E00028680069800702D0284600F0B7F9B003F6
:1007F00008D55FEAC96005D52968102048602846F9
:1008000000F0BCF9F00307D55FEA097004D5286849
:100810004760284600F0E6F9300446D55FEA4970A3
:1008200040D5F00504D55FEAC87001D044F001045A
:10083000B00504D55FEA887001D544F00204700564
:1008400004D55FEA487001D544F00404300529D589
:1008500018F0700F26D008F07000402815D006DC84
:10086000102809D020280AD0302816D10AE05028B4
:100870000ED0602811D10EE044F008040DE044F0E1
:1008800010040AE044F0200407E044F0400404E0CF
:1008900044F0800401E044F480742868816921F008
:1008A00070018161296804204860002C05D0686AC5
:1008B000204368622846FFF779FEBDE8F09F70B5D7
:1008C000040003D094F8200010B104E0012070BDB2
:1008D000204600F081F82068016821F002010160E3
:1008E00000F07AFA0546052604E000F075FA401B90
:1008F0000A2811D8206840688007F6D4206801686B
:1009000041F00101016000F067FA05460BE000F0DC
:1009100063FA401B0A2806D9606A40F4003060621E
:1009200084F82060D2E720684068C007EFD0207EBE
:100930000128206801683DD021F080010160607EBF
:1009400001282068016838D021F040010160A07EB4
:1009500001282068016833D021F020010160E07E89
:100960000128206801682ED041F010010160207F2D
:1009700001282068016829D021F008010160607F0A
:1009800001282068016824D021F004010160D4E925
:1009900002010843D4E90412114308436168491E67
:1009A00008432168C86100206062012084F82000AB
:1009B000002070BD41F08001C0E741F04001C5E773
:1009C00041F02001CAE721F01001CFE741F0080112
:1009D000D4E741F00401D9E7F0B587B0044614210B
:1009E0006846FFF725FC4E4B4E48DFF830E11968AA
:1009F000D4F800C04B4A03250226092710300024F2
:100A0000491CF4453AD11960012907D1016841F028
:100A100000710160006800F000700590106840F0FF
:100A2000080010601068CDE9005600F00800CDE91C
:100A3000047069463C48CDE9024500F0E7F8002221
:100A40001146132000F050FA132000F03FFA002264
:100A50001146142000F048FA142000F037FA002262
:100A60001146152000F040FA152000F02FFA002260
:100A70001146162000F038FA16204AE0DFF8ACE004
:100A8000F44548D1D0F800C04CF0806CC0F800C0EC
:100A9000D0F800C001290CF0806CCDF814C01960AA
:100AA00007D1016841F000710160006800F000703A
:100AB0000590106840F002001060106802AB00F072
:100AC000020005906020CDE9000683E8B000694689
:100AD000174800F09BF8002211463F2000F004FA6E
:100AE0003F2000F0F3F900221146402000F0FCF90D
:100AF000402000F0EBF900221146412000F0F4F90B
:100B0000412000F0E3F900221146422000F0ECF908
:100B1000422000F0DBF907B0F0BD000000640040A7
:100B20002000002030380240000C024000680040E5
:100B300000040240704700000449884205D1044B7C
:100B4000044A00210148FFF732BD7047AC00002085
:100B5000100000204C00002070470000044988422B
:100B600005D1044B044A01210148FFF720BD70471D
:100B7000AC00002018000020680000207047000032
:100B800070B5044690F82000012804D0606A40F453
:100B90000020606218E0022084F8200020680168CC
:100BA00021F00101016000F017F905460EE000BFD9
:100BB00000F012F9401B0A2808D9606A40F400309E
:100BC0006062052084F82000012070BD2068406824
:100BD000C007EDD1606270BD7047704770477047C5
:100BE000704770477047000070B5044600F0F4F895
:100BF0000546601C02D004480078044400F0ECF87C
:100C0000401BA042FAD370BD240000202DE9F84F0C
:100C100000224FF0010803254FF00F0E0B6808FA71
:100C200002F42340A3426ED14E68012E05D0022E5D
:100C300003D0112E01D0122E12D186684FEA420C39
:100C400005FA0CF7BE43CF6807FA0CF73743876005
:100C50004668A6430C79C4F30014944034434460BE
:100C6000C668570005FA07FC8C6826EA0C06BC40EB
:100C70003443C4604C68022C01D0122C13D1D40828
:100C800000EB8404A346D4F8209054074FEAD46ABA
:100C90000EFA0AF629EA06090E6906FA0AF646EA83
:100CA0000906CBF8206006680C7926EA0C0604F0E9
:100CB0000304BC40344304604C68E40065D5364C02
:100CC000266846F480462660246822F0030604F471
:100CD00080440094314C3444A446D4F80848960724
:100CE000370F0EFA07F6B4432D4EB04201D100265D
:100CF00024E02C4EB04201D101261FE02A4EB04222
:100D000002D102261AE040E0284EB04201D103266B
:100D100014E0274EB04201D104260FE0254EB04228
:100D200001D105260AE0244EB04201D1062605E095
:100D3000224EB04201D1072600E00826BE402643DD
:100D4000CCF808681E4E34684F689C43FF0300D5FA
:100D50001C4334601A4C241D26684F689E43BF0311
:100D600000D51E432660164E083634684F689C43F3
:100D7000FF0200D51C433460114E0C3634684F68B6
:100D80009C43BF0200D51C433460521C102AFFF460
:100D900045AFBDE8F88F0000443802400030014004
:100DA000000002400004024000080240000C024023
:100DB000001002400014024000180240001C0240D3
:100DC000003C01400069084000D0012070470AB192
:100DD000816170470904FBE70148806870470000A3
:100DE0002400002002488168027811448160704725
:100DF000240000200B4810B5016841F40071016027
:100E0000016841F480610160016841F48071016012
:100E1000032000F089F8002000F006F800F03EF80A
:100E2000002010BD003C024010B5014688B00022F1
:100E3000372000F059F8372000F048F81348002414
:100E4000016841F020010160006805A900F0200060
:100E50000690684600F014F900F032F90C494000A1
:100E6000B0FBF1F10C480B4A491E026040F2E73238
:100E7000C0E90324C0E9011400F014FB10B1012003
:100E800008B010BD044800F029FBF9E740380240E3
:100E900040420F0000140040D40000200A4808B56A
:100EA000016841F480410160006800F480400090D6
:100EB0000548001F016841F080510160006800F0A2
:100EC0008050009008BD000044380240002809DB33
:100ED00000F01F02012191404009800000F1E02054
:100EE000C0F8001170470000F0B40E4B1B680C46B0
:100EF000C3F30223C3F10705042D00D90425191DEE
:100F0000072901D2002300E0DB1E012606FA05F1C5
:100F1000491E214099409E40761E16403143F0BC48
:100F200000F0FDBC0CED00E0064900F00702086887
:100F30004FF6FF03184040EA0220034A10430860BE
:100F4000704700000CED00E00000FA052DE9F047C5
:100F50000E46050065D0DFF81481D8F80000F7B21E
:100F600000F00F00B04207D288F80070D8F80000F7
:100F700000F00F00B04254D128683D4C810712D5D3
:100F8000400703D5206840F4E0502060287800072F
:100F900003D5206840F4604020602068A96820F0F4
:100FA000F000084320602878C0072DD030496868D9
:100FB0000839012812D0022813D0032811D009685B
:100FC000890700292DDA216821F0030101432160FE
:100FD000FFF702FF814641F2883A0EE00968890373
:100FE000EFE709688901ECE7FFF7F6FEA0EB0901DE
:100FF000514502D90320BDE8F0872068696800F0F8
:101000000C00B0EB810FEFD1D8F80010404601F092
:101010000F01B14207D90770006800F00F00B0421D
:1010200001D00120E7E72878400705D52068E96866
:1010300020F4E050084320602878000706D5206897
:10104000296920F4604040EAC100206000F048F8BF
:101050002168084AC1F30311515CC8400649086081
:1010600006480068FFF7E0FE0020C4E7003C0240AD
:1010700008380240F4190008300000202800002041
:101080000F2202600C4A136803F0030343601368E5
:1010900003F0F0038360136803F4E053C360126845
:1010A0004FF4E05303EAD20202610448006800F002
:1010B0000F0008607047000008380240003C024002
:1010C0000448054900680968044AC1F38221515C5B
:1010D000C84070473000002008380240041A000859
:1010E000154810B5006810F00C02144813D01449CC
:1010F000042A0FD0082A0ED10F4C241F226823681F
:1011000002F03F025B0207D52068C0F38810A0FB05
:10111000010106E0084610BD2168C1F38811A1FB5A
:1011200000010023FFF74CF82168C1F30141491C7D
:101130004900B0FBF1F010BD083802400024F40073
:10114000001BB7002DE9F84F040076D02078DFF8B7
:1011500038A3CE4DC00749D0DAF800105046C1F38D
:101160008101012908D00068C0F3810002280AD15A
:10117000281D0068400206D52868800336D56068BF
:101180000028E2D032E06068B0F5803F10D0B0F5C2
:10119000A02F286810D020F480302860286820F420
:1011A000802028606068A0B1FFF716FE06460CE0BC
:1011B000286840F48030F4E740F480202860F7E7A6
:1011C000FFF70AFE801B642873D828688003F7D5D0
:1011D0000CE0FFF701FE064605E000BFFFF7FCFD4F
:1011E000801B6428F0D828688003F7D42078DFF8C3
:1011F000A08280074FF000093ED5DAF80010504673
:1012000011F00C0F09D00068C0F3810002280BD147
:101210009D48001F0068400206D42868800715D545
:10122000E068012809D111E0E068B8B10120C8F8F0
:101230000000FFF7D1FD064605E020E1FFF7CCFDF9
:10124000801B0228C0D828688007F7D52868216944
:1012500020F0F80040EAC10028600DE0C8F80090D6
:10126000FFF7BAFD064604E0FFF7B6FD801B022833
:101270001FD828688007F7D42078000722D5824E2F
:10128000844861696C3671B101210160FFF7A4FDEA
:10129000074604E0FFF7A0FDC01B022809D830680C
:1012A0008007F7D50EE0C0F80090FFF795FD0746E0
:1012B00005E082E0FFF790FDC01B02287DD8306872
:1012C0008007F7D42078400768D5DFF8BCB1002745
:1012D0000BF1380BDBF80000C0000BD4DBF800107A
:1012E00041F08051CBF80010DBF80000012700F03E
:1012F00080500090684E3068C00510D4306840F4CB
:1013000080703060FFF768FD009005E0FFF764FD36
:101310000099401A022850D83068C005F6D55A4EB8
:10132000A068683601280FD00528306810D020F05A
:1013300001003060306820F004003060A068B8B16F
:10134000FFF74AFD00900FE0306840F00100F4E73D
:1013500040F004003060F7E7FFF73EFD0099411AC6
:1013600041F28830814266D830688007F4D50EE0BB
:10137000FFF732FD009007E0FFF72EFD0099411ABC
:1013800041F28830814256D830688007F4D42FB1BA
:10139000DBF8001021F08051CBF80010A069D0B329
:1013A000DAF800205146C2F38102022A4AD002280C
:1013B000484607D0C8F8600000E03CE0FFF70CFDAD
:1013C00004463BE04746C8F86000FFF705FD0646C7
:1013D00005E000BFFFF700FD801B02282BD828681E
:1013E0008001F7D4D4E907010843A16A2B4A4908D0
:1013F00002EB0141626A41EA8211084394F82C1021
:1014000040EA01612048001F016001203866FFF7B3
:10141000E3FC044605E034E0FFF7DEFC001B022895
:1014200009D828688001F7D52BE000BFFFF7D4FC6E
:10143000001B022802D90320BDE8F88F286880012C
:10144000F4D41EE00128F7D00868E26900F48001B6
:10145000914214D1226A00F03F0191420FD147F628
:10146000C071626A0140914209D1A26A00F4403120
:10147000914204D1E16A00F07060884201D00120FD
:10148000DAE70020D8E700000838024000380240C0
:1014900000004742800E4742007000400000FFFFFE
:1014A0007047704710B5040003D094F83D0010B1A8
:1014B00007E0012010BD002084F83C00204600F029
:1014C0000CF8022084F83D00211D206800F0C2F9CC
:1014D000012084F83D00002010BD70470168CA68F3
:1014E00042F00102CA600068816801F00701062924
:1014F00003D0016841F0010101600020704770478E
:1015000070B50446006801694FF00005C9438907BA
:1015100015D4C168C943890711D4E91E01610120AE
:101520002077206880698007204602D0FFF7E7FF18
:1015300004E000F098F8204600F096F8257720683F
:101540000169C943490717D4C168C943490713D47E
:101550006FF004010161022020772068806910F497
:10156000407F204602D0FFF7CAFF04E000F07BF87E
:10157000204600F079F8257720680169C9430907FA
:1015800016D4C168C943090712D46FF0080101617C
:10159000042020772068C0698007204602D0FFF72A
:1015A000AEFF04E000F05FF8204600F05DF825771C
:1015B00020680169C943C90617D4C168C943C9066F
:1015C00013D46FF010010161082020772068C069F2
:1015D00010F4407F204602D0FFF791FF04E000F0B6
:1015E00042F8204600F040F8257720680169C94399
:1015F000C90708D1C168C943C90704D1891E01615F
:10160000204600F033F820680169C943090609D46F
:10161000C168C943090605D46FF080010161204605
:10162000FFF73EFF20680169C943490609D4C16834
:10163000C943490605D46FF040010161204600F01E
:101640001FF820680169C94389060BD4C168C943E2
:10165000890607D46FF0200101612046BDE8704083
:10166000FFF71FBF70BD7047704700000068034957
:10167000884201D1FFF7B6BB70470000001400405C
:101680007047FEE70F4810B50D4901600321416026
:1016900000214FF400228160C0E903124FF4401290
:1016A0004261017641768176C17601774177FFF715
:1016B00006F9002803D0BDE81040FEF77ABE10BD41
:1016C00000640040840000200F4810B50D490160FF
:1016D0000321416000214FF400228160C0E9031220
:1016E0004FF440124261017641768176C1760177EE
:1016F0004177FFF7E4F8002803D0BDE81040FEF77B
:1017000058BE10BD00680040AC00002070B586B027
:1017100014216846FEF78CFD1D480024016841F045
:1017200002010160016801F002010591016841F0C8
:1017300001010160016801F001010591016841F0BA
:1017400008010160016801F008010591016841F09C
:101750008001016000680F4E00F080004FF480555A
:101760000590002229463046FFF731FB0095012500
:10177000CDE90154694630460394FFF747FACDE9B5
:101780000054694604480294FFF740FA06B070BD61
:1017900030380240001C024000000240FEE7704763
:1017A000704770477047000030B593B030216846ED
:1017B000FEF73EFD14210CA8FEF73AFD194800255E
:1017C000016841F080510160006800F08050119084
:1017D0001548016841F4804101600068022400F46A
:1017E0008040119001200090000401908001CDE91B
:1017F000064006200890A820CDE9090404200B909B
:101800006846FFF79FFC0CA90F2081E831004FF4D8
:10181000A0500F90E002109005210CA8FFF796FB56
:1018200013B030BD403802400070004005480168E8
:1018300041F47001016003494FF000608039086095
:101840007047000088ED00E00148FFF759BE000036
:10185000D4000020F0B50268254C264D264E274FB7
:10186000274B4FF0804CA04209D0604507D0A842DA
:1018700005D0B04203D0B84201D0984204D122F042
:10188000700E4A6842EA0E02A0421BD0604519D091
:10189000A84217D0B04215D0B84213D0984211D008
:1018A000184DA8420ED0184DA8420BD0174DA84293
:1018B00008D0174DA84205D0164DA84202D0164DAB
:1018C000A84203D122F44075CA682A434D6922F028
:1018D00080022A4302608A68C2620A688262A04269
:1018E00001D0984201D10969016301214161F0BD34
:1018F000000001400004004000080040000C0040CF
:101900000004014000400140004401400048014003
:1019100000180040001C004000200040FEE70907BE
:10192000090E002804DB00F1E02080F80014704765
:1019300000F00F0000F1E02080F8141D704702E075
:1019400008C8121F08C1002AFAD17047704700204A
:1019500001E001C1121F002AFBD17047FFF74AFACC
:10196000FFF722FFFFF7D2FEFFF78CFEFFF7ACFE7A
:10197000FEF7CCFCDFF870A01A4D1C4F4FF00108A9
:101980004FF008090026AAF1080401213846FFF7A4
:1019900019FA08B9207830B101213846FFF712FA58
:1019A000012817D019E084F800806088AE602860B4
:1019B000C5E90369FFF710FACAF800000C48FEF702
:1019C0006AFE50B1084B07491B1F1A1D0848FEF755
:1019D00003FD02E0207800B126706420FFF704F9CF
:1019E000D3E700003400002008000020000002407F
:1019F0008400002000000000000000000102030439
:101A00000607080900000000010203042C1A000860
:101A100000000020340000003E190008601A000891
:101A200034000020E40400004E1900080000000209
:101A300000000000000000000000000000000000A6
:101A40000000000000000000000000000000000096
:101A50000100000010000000000000000024F4005D
:040000050800018965
:00000001FF
